{
  "_format": "hh-sol-artifact-1",
  "contractName": "VeDeusMigrator",
  "sourceName": "contracts/VeDeusMigrator.sol",
  "abi": [
    {
      "inputs": [],
      "stateMutability": "nonpayable",
      "type": "constructor"
    },
    {
      "inputs": [],
      "name": "NotOwned",
      "type": "error"
    },
    {
      "anonymous": false,
      "inputs": [
        {
          "indexed": false,
          "internalType": "uint8",
          "name": "version",
          "type": "uint8"
        }
      ],
      "name": "Initialized",
      "type": "event"
    },
    {
      "anonymous": false,
      "inputs": [
        {
          "indexed": false,
          "internalType": "address",
          "name": "account",
          "type": "address"
        },
        {
          "indexed": false,
          "internalType": "uint256",
          "name": "nftId",
          "type": "uint256"
        },
        {
          "indexed": false,
          "internalType": "uint256",
          "name": "vDeusAmount",
          "type": "uint256"
        }
      ],
      "name": "MigrateVeDEUSToVDEUS",
      "type": "event"
    },
    {
      "anonymous": false,
      "inputs": [
        {
          "indexed": false,
          "internalType": "address",
          "name": "account",
          "type": "address"
        }
      ],
      "name": "Paused",
      "type": "event"
    },
    {
      "anonymous": false,
      "inputs": [
        {
          "indexed": true,
          "internalType": "bytes32",
          "name": "role",
          "type": "bytes32"
        },
        {
          "indexed": true,
          "internalType": "bytes32",
          "name": "previousAdminRole",
          "type": "bytes32"
        },
        {
          "indexed": true,
          "internalType": "bytes32",
          "name": "newAdminRole",
          "type": "bytes32"
        }
      ],
      "name": "RoleAdminChanged",
      "type": "event"
    },
    {
      "anonymous": false,
      "inputs": [
        {
          "indexed": true,
          "internalType": "bytes32",
          "name": "role",
          "type": "bytes32"
        },
        {
          "indexed": true,
          "internalType": "address",
          "name": "account",
          "type": "address"
        },
        {
          "indexed": true,
          "internalType": "address",
          "name": "sender",
          "type": "address"
        }
      ],
      "name": "RoleGranted",
      "type": "event"
    },
    {
      "anonymous": false,
      "inputs": [
        {
          "indexed": true,
          "internalType": "bytes32",
          "name": "role",
          "type": "bytes32"
        },
        {
          "indexed": true,
          "internalType": "address",
          "name": "account",
          "type": "address"
        },
        {
          "indexed": true,
          "internalType": "address",
          "name": "sender",
          "type": "address"
        }
      ],
      "name": "RoleRevoked",
      "type": "event"
    },
    {
      "anonymous": false,
      "inputs": [
        {
          "indexed": false,
          "internalType": "address",
          "name": "account",
          "type": "address"
        }
      ],
      "name": "Unpaused",
      "type": "event"
    },
    {
      "inputs": [],
      "name": "DEFAULT_ADMIN_ROLE",
      "outputs": [
        {
          "internalType": "bytes32",
          "name": "",
          "type": "bytes32"
        }
      ],
      "stateMutability": "view",
      "type": "function"
    },
    {
      "inputs": [],
      "name": "PAUSER_ROLE",
      "outputs": [
        {
          "internalType": "bytes32",
          "name": "",
          "type": "bytes32"
        }
      ],
      "stateMutability": "view",
      "type": "function"
    },
    {
      "inputs": [],
      "name": "SETTER_ROLE",
      "outputs": [
        {
          "internalType": "bytes32",
          "name": "",
          "type": "bytes32"
        }
      ],
      "stateMutability": "view",
      "type": "function"
    },
    {
      "inputs": [],
      "name": "WITHDRAWER",
      "outputs": [
        {
          "internalType": "bytes32",
          "name": "",
          "type": "bytes32"
        }
      ],
      "stateMutability": "view",
      "type": "function"
    },
    {
      "inputs": [
        {
          "internalType": "bytes32",
          "name": "role",
          "type": "bytes32"
        }
      ],
      "name": "getRoleAdmin",
      "outputs": [
        {
          "internalType": "bytes32",
          "name": "",
          "type": "bytes32"
        }
      ],
      "stateMutability": "view",
      "type": "function"
    },
    {
      "inputs": [
        {
          "internalType": "bytes32",
          "name": "role",
          "type": "bytes32"
        },
        {
          "internalType": "address",
          "name": "account",
          "type": "address"
        }
      ],
      "name": "grantRole",
      "outputs": [],
      "stateMutability": "nonpayable",
      "type": "function"
    },
    {
      "inputs": [
        {
          "internalType": "bytes32",
          "name": "role",
          "type": "bytes32"
        },
        {
          "internalType": "address",
          "name": "account",
          "type": "address"
        }
      ],
      "name": "hasRole",
      "outputs": [
        {
          "internalType": "bool",
          "name": "",
          "type": "bool"
        }
      ],
      "stateMutability": "view",
      "type": "function"
    },
    {
      "inputs": [
        {
          "internalType": "address",
          "name": "pauser",
          "type": "address"
        },
        {
          "internalType": "address",
          "name": "setter",
          "type": "address"
        },
        {
          "internalType": "address",
          "name": "admin",
          "type": "address"
        }
      ],
      "name": "initialize",
      "outputs": [],
      "stateMutability": "nonpayable",
      "type": "function"
    },
    {
      "inputs": [
        {
          "internalType": "uint256[]",
          "name": "nftIds",
          "type": "uint256[]"
        }
      ],
      "name": "migrateAllVeDEUSToVDEUS",
      "outputs": [],
      "stateMutability": "nonpayable",
      "type": "function"
    },
    {
      "inputs": [
        {
          "internalType": "uint256",
          "name": "nftId",
          "type": "uint256"
        }
      ],
      "name": "migrateVeDEUSToVDEUS",
      "outputs": [],
      "stateMutability": "nonpayable",
      "type": "function"
    },
    {
      "inputs": [],
      "name": "pause",
      "outputs": [],
      "stateMutability": "nonpayable",
      "type": "function"
    },
    {
      "inputs": [],
      "name": "paused",
      "outputs": [
        {
          "internalType": "bool",
          "name": "",
          "type": "bool"
        }
      ],
      "stateMutability": "view",
      "type": "function"
    },
    {
      "inputs": [
        {
          "internalType": "bytes32",
          "name": "role",
          "type": "bytes32"
        },
        {
          "internalType": "address",
          "name": "account",
          "type": "address"
        }
      ],
      "name": "renounceRole",
      "outputs": [],
      "stateMutability": "nonpayable",
      "type": "function"
    },
    {
      "inputs": [
        {
          "internalType": "bytes32",
          "name": "role",
          "type": "bytes32"
        },
        {
          "internalType": "address",
          "name": "account",
          "type": "address"
        }
      ],
      "name": "revokeRole",
      "outputs": [],
      "stateMutability": "nonpayable",
      "type": "function"
    },
    {
      "inputs": [
        {
          "internalType": "address",
          "name": "vDEUS_",
          "type": "address"
        },
        {
          "internalType": "address",
          "name": "veDEUS_",
          "type": "address"
        }
      ],
      "name": "setAddresses",
      "outputs": [],
      "stateMutability": "nonpayable",
      "type": "function"
    },
    {
      "inputs": [
        {
          "internalType": "bytes4",
          "name": "interfaceId",
          "type": "bytes4"
        }
      ],
      "name": "supportsInterface",
      "outputs": [
        {
          "internalType": "bool",
          "name": "",
          "type": "bool"
        }
      ],
      "stateMutability": "view",
      "type": "function"
    },
    {
      "inputs": [],
      "name": "unpause",
      "outputs": [],
      "stateMutability": "nonpayable",
      "type": "function"
    },
    {
      "inputs": [],
      "name": "vDEUS",
      "outputs": [
        {
          "internalType": "contract IvDEUS",
          "name": "",
          "type": "address"
        }
      ],
      "stateMutability": "view",
      "type": "function"
    },
    {
      "inputs": [
        {
          "internalType": "uint256[]",
          "name": "nftIds",
          "type": "uint256[]"
        }
      ],
      "name": "valueOfVeDeusNFTs",
      "outputs": [
        {
          "internalType": "int128",
          "name": "value",
          "type": "int128"
        }
      ],
      "stateMutability": "view",
      "type": "function"
    },
    {
      "inputs": [],
      "name": "veDEUS",
      "outputs": [
        {
          "internalType": "contract IveDEUS",
          "name": "",
          "type": "address"
        }
      ],
      "stateMutability": "view",
      "type": "function"
    },
    {
      "inputs": [
        {
          "internalType": "address",
          "name": "token",
          "type": "address"
        },
        {
          "internalType": "uint256",
          "name": "amount",
          "type": "uint256"
        },
        {
          "internalType": "address",
          "name": "to",
          "type": "address"
        }
      ],
      "name": "withdrawERC20",
      "outputs": [],
      "stateMutability": "nonpayable",
      "type": "function"
    },
    {
      "inputs": [
        {
          "internalType": "address",
          "name": "token",
          "type": "address"
        },
        {
          "internalType": "uint256[]",
          "name": "nftIds",
          "type": "uint256[]"
        },
        {
          "internalType": "address",
          "name": "to",
          "type": "address"
        }
      ],
      "name": "withdrawERC721",
      "outputs": [],
      "stateMutability": "nonpayable",
      "type": "function"
    }
  ],
  "bytecode": "0x60806040523480156200001157600080fd5b50620000226200002860201b60201c565b620001d3565b600060019054906101000a900460ff16156200007b576040517f08c379a0000000000000000000000000000000000000000000000000000000008152600401620000729062000176565b60405180910390fd5b60ff801660008054906101000a900460ff1660ff161015620000ed5760ff6000806101000a81548160ff021916908360ff1602179055507f7f26b83ff96e1f2b6a682f133852f6798a09c465da95921460cefb384740249860ff604051620000e49190620001b6565b60405180910390a15b565b600082825260208201905092915050565b7f496e697469616c697a61626c653a20636f6e747261637420697320696e69746960008201527f616c697a696e6700000000000000000000000000000000000000000000000000602082015250565b60006200015e602783620000ef565b91506200016b8262000100565b604082019050919050565b6000602082019050818103600083015262000191816200014f565b9050919050565b600060ff82169050919050565b620001b08162000198565b82525050565b6000602082019050620001cd6000830184620001a5565b92915050565b61270e80620001e36000396000f3fe608060405234801561001057600080fd5b50600436106101425760003560e01c806366941984116100b8578063a217fddf1161007c578063a217fddf14610327578063a6ffd68d14610345578063c0c53b8b14610375578063d547741f14610391578063e63ab1e9146103ad578063f7508dcc146103cb57610142565b806366941984146102955780638456cb59146102b357806390107afe146102bd57806391d14854146102d9578063a2011b3f1461030957610142565b80633786ddfc1161010a5780633786ddfc146101fb5780633f4ba83a146102175780634a9ce561146102215780635c975abb1461023f5780635e1188751461025d5780635fc3ea0b1461027957610142565b806301ffc9a714610147578063248a9ca3146101775780632f2ff15d146101a7578063357454ed146101c357806336568abe146101df575b600080fd5b610161600480360381019061015c9190611776565b6103e9565b60405161016e91906117be565b60405180910390f35b610191600480360381019061018c919061180f565b6103fb565b60405161019e919061184b565b60405180910390f35b6101c160048036038101906101bc91906118c4565b61041b565b005b6101dd60048036038101906101d8919061193a565b61043c565b005b6101f960048036038101906101f491906118c4565b61065e565b005b61021560048036038101906102109190611ac0565b6106e1565b005b61021f6107ba565b005b6102296107ef565b6040516102369190611b8e565b60405180910390f35b610247610815565b60405161025491906117be565b60405180910390f35b61027760048036038101906102729190611ba9565b61082c565b005b610293600480360381019061028e9190611bf2565b61087a565b005b61029d610976565b6040516102aa919061184b565b60405180910390f35b6102bb61099a565b005b6102d760048036038101906102d29190611c45565b6109d7565b005b6102f360048036038101906102ee91906118c4565b610a88565b60405161030091906117be565b60405180910390f35b610311610af3565b60405161031e919061184b565b60405180910390f35b61032f610b17565b60405161033c919061184b565b60405180910390f35b61035f600480360381019061035a9190611ba9565b610b1e565b60405161036c9190611ca1565b60405180910390f35b61038f600480360381019061038a9190611cbc565b610c1d565b005b6103ab60048036038101906103a691906118c4565b610e71565b005b6103b5610e92565b6040516103c2919061184b565b60405180910390f35b6103d3610eb6565b6040516103e09190611d30565b60405180910390f35b60006103f482610edc565b9050919050565b600060976000838152602001908152602001600020600101549050919050565b610424826103fb565b61042d81610f56565b6104378383610f6a565b505050565b61044461104b565b60ca60009054906101000a900473ffffffffffffffffffffffffffffffffffffffff1673ffffffffffffffffffffffffffffffffffffffff166342842e0e3330846040518463ffffffff1660e01b81526004016104a393929190611d69565b600060405180830381600087803b1580156104bd57600080fd5b505af11580156104d1573d6000803e3d6000fd5b50505050600060ca60009054906101000a900473ffffffffffffffffffffffffffffffffffffffff1673ffffffffffffffffffffffffffffffffffffffff1663b45a3c0e836040518263ffffffff1660e01b81526004016105329190611da0565b604080518083038186803b15801561054957600080fd5b505afa15801561055d573d6000803e3d6000fd5b505050506040513d601f19601f820116820180604052508101906105819190611e51565b600001519050600081600f0b905060c960009054906101000a900473ffffffffffffffffffffffffffffffffffffffff1673ffffffffffffffffffffffffffffffffffffffff166340c10f1933836040518363ffffffff1660e01b81526004016105ec929190611e7e565b600060405180830381600087803b15801561060657600080fd5b505af115801561061a573d6000803e3d6000fd5b505050507f7c777651d1235a94d5a71e559c68e2776501c012a0c64052412924c8e9427f0433848360405161065193929190611ea7565b60405180910390a1505050565b610666611095565b73ffffffffffffffffffffffffffffffffffffffff168173ffffffffffffffffffffffffffffffffffffffff16146106d3576040517f08c379a00000000000000000000000000000000000000000000000000000000081526004016106ca90611f61565b60405180910390fd5b6106dd828261109d565b5050565b7f779b9d7b1cefd23059ce3e2b194efb3183a6685dd830e8cbb723b0cbeb982b2861070b81610f56565b60005b83518110156107b3578473ffffffffffffffffffffffffffffffffffffffff166342842e0e308587858151811061074857610747611f81565b5b60200260200101516040518463ffffffff1660e01b815260040161076e93929190611d69565b600060405180830381600087803b15801561078857600080fd5b505af115801561079c573d6000803e3d6000fd5b5050505080806107ab90611fdf565b91505061070e565b5050505050565b7f65d7a28e3265b37a6474929f336521b332c1681b933f6cb9f3376673440d862a6107e481610f56565b6107ec61117f565b50565b60ca60009054906101000a900473ffffffffffffffffffffffffffffffffffffffff1681565b6000603360009054906101000a900460ff16905090565b61083461104b565b60005b81518110156108765761086382828151811061085657610855611f81565b5b602002602001015161043c565b808061086e90611fdf565b915050610837565b5050565b7f779b9d7b1cefd23059ce3e2b194efb3183a6685dd830e8cbb723b0cbeb982b286108a481610f56565b8373ffffffffffffffffffffffffffffffffffffffff1663a9059cbb83856040518363ffffffff1660e01b81526004016108df929190611e7e565b602060405180830381600087803b1580156108f957600080fd5b505af115801561090d573d6000803e3d6000fd5b505050506040513d601f19601f820116820180604052508101906109319190612054565b610970576040517f08c379a0000000000000000000000000000000000000000000000000000000008152600401610967906120cd565b60405180910390fd5b50505050565b7f779b9d7b1cefd23059ce3e2b194efb3183a6685dd830e8cbb723b0cbeb982b2881565b7f65d7a28e3265b37a6474929f336521b332c1681b933f6cb9f3376673440d862a6109c481610f56565b6109cc61104b565b6109d46111e2565b50565b7f61c92169ef077349011ff0b1383c894d86c5f0b41d986366b58a6cf31e93beda610a0181610f56565b8260c960006101000a81548173ffffffffffffffffffffffffffffffffffffffff021916908373ffffffffffffffffffffffffffffffffffffffff1602179055508160ca60006101000a81548173ffffffffffffffffffffffffffffffffffffffff021916908373ffffffffffffffffffffffffffffffffffffffff160217905550505050565b60006097600084815260200190815260200160002060000160008373ffffffffffffffffffffffffffffffffffffffff1673ffffffffffffffffffffffffffffffffffffffff16815260200190815260200160002060009054906101000a900460ff16905092915050565b7f61c92169ef077349011ff0b1383c894d86c5f0b41d986366b58a6cf31e93beda81565b6000801b81565b600080600090505b8251811015610c175760ca60009054906101000a900473ffffffffffffffffffffffffffffffffffffffff1673ffffffffffffffffffffffffffffffffffffffff1663b45a3c0e848381518110610b8057610b7f611f81565b5b60200260200101516040518263ffffffff1660e01b8152600401610ba49190611da0565b604080518083038186803b158015610bbb57600080fd5b505afa158015610bcf573d6000803e3d6000fd5b505050506040513d601f19601f82011682018060405250810190610bf39190611e51565b6000015182610c0291906120ed565b91508080610c0f90611fdf565b915050610b26565b50919050565b60008060019054906101000a900460ff16159050808015610c4e5750600160008054906101000a900460ff1660ff16105b80610c7b5750610c5d30611245565b158015610c7a5750600160008054906101000a900460ff1660ff16145b5b610cba576040517f08c379a0000000000000000000000000000000000000000000000000000000008152600401610cb1906121e3565b60405180910390fd5b60016000806101000a81548160ff021916908360ff1602179055508015610cf7576001600060016101000a81548160ff0219169083151502179055505b610cff611268565b610d076112c1565b610d317f65d7a28e3265b37a6474929f336521b332c1681b933f6cb9f3376673440d862a85610f6a565b610d5b7f61c92169ef077349011ff0b1383c894d86c5f0b41d986366b58a6cf31e93beda84610f6a565b610d686000801b83610f6a565b73953cd009a490176fceb3a26b9753e6f01645ff2860c960006101000a81548173ffffffffffffffffffffffffffffffffffffffff021916908373ffffffffffffffffffffffffffffffffffffffff160217905550738b42c6cb07c8dd5fe5db3ac03693867afd11353d60ca60006101000a81548173ffffffffffffffffffffffffffffffffffffffff021916908373ffffffffffffffffffffffffffffffffffffffff1602179055508015610e6b5760008060016101000a81548160ff0219169083151502179055507f7f26b83ff96e1f2b6a682f133852f6798a09c465da95921460cefb38474024986001604051610e62919061224b565b60405180910390a15b50505050565b610e7a826103fb565b610e8381610f56565b610e8d838361109d565b505050565b7f65d7a28e3265b37a6474929f336521b332c1681b933f6cb9f3376673440d862a81565b60c960009054906101000a900473ffffffffffffffffffffffffffffffffffffffff1681565b60007f7965db0b000000000000000000000000000000000000000000000000000000007bffffffffffffffffffffffffffffffffffffffffffffffffffffffff1916827bffffffffffffffffffffffffffffffffffffffffffffffffffffffff19161480610f4f5750610f4e82611312565b5b9050919050565b610f6781610f62611095565b61137c565b50565b610f748282610a88565b6110475760016097600084815260200190815260200160002060000160008373ffffffffffffffffffffffffffffffffffffffff1673ffffffffffffffffffffffffffffffffffffffff16815260200190815260200160002060006101000a81548160ff021916908315150217905550610fec611095565b73ffffffffffffffffffffffffffffffffffffffff168173ffffffffffffffffffffffffffffffffffffffff16837f2f8788117e7eff1d82e926ec794901d17c78024a50270940304540a733656f0d60405160405180910390a45b5050565b611053610815565b15611093576040517f08c379a000000000000000000000000000000000000000000000000000000000815260040161108a906122b2565b60405180910390fd5b565b600033905090565b6110a78282610a88565b1561117b5760006097600084815260200190815260200160002060000160008373ffffffffffffffffffffffffffffffffffffffff1673ffffffffffffffffffffffffffffffffffffffff16815260200190815260200160002060006101000a81548160ff021916908315150217905550611120611095565b73ffffffffffffffffffffffffffffffffffffffff168173ffffffffffffffffffffffffffffffffffffffff16837ff6391f5c32d9c69d2a47ea670b442974b53935d1edc7fd64eb21e047a839171b60405160405180910390a45b5050565b611187611419565b6000603360006101000a81548160ff0219169083151502179055507f5db9ee0a495bf2e6ff9c91a7834c1ba4fdd244a5e8aa4e537bd38aeae4b073aa6111cb611095565b6040516111d891906122d2565b60405180910390a1565b6111ea61104b565b6001603360006101000a81548160ff0219169083151502179055507f62e78cea01bee320cd4e420270b5ea74000d11b0c9f74754ebdbfc544b05a25861122e611095565b60405161123b91906122d2565b60405180910390a1565b6000808273ffffffffffffffffffffffffffffffffffffffff163b119050919050565b600060019054906101000a900460ff166112b7576040517f08c379a00000000000000000000000000000000000000000000000000000000081526004016112ae9061235f565b60405180910390fd5b6112bf611462565b565b600060019054906101000a900460ff16611310576040517f08c379a00000000000000000000000000000000000000000000000000000000081526004016113079061235f565b60405180910390fd5b565b60007f01ffc9a7000000000000000000000000000000000000000000000000000000007bffffffffffffffffffffffffffffffffffffffffffffffffffffffff1916827bffffffffffffffffffffffffffffffffffffffffffffffffffffffff1916149050919050565b6113868282610a88565b611415576113ab8173ffffffffffffffffffffffffffffffffffffffff1660146114ce565b6113b98360001c60206114ce565b6040516020016113ca929190612491565b6040516020818303038152906040526040517f08c379a000000000000000000000000000000000000000000000000000000000815260040161140c9190612504565b60405180910390fd5b5050565b611421610815565b611460576040517f08c379a000000000000000000000000000000000000000000000000000000000815260040161145790612572565b60405180910390fd5b565b600060019054906101000a900460ff166114b1576040517f08c379a00000000000000000000000000000000000000000000000000000000081526004016114a89061235f565b60405180910390fd5b6000603360006101000a81548160ff021916908315150217905550565b6060600060028360026114e19190612592565b6114eb91906125ec565b67ffffffffffffffff8111156115045761150361197d565b5b6040519080825280601f01601f1916602001820160405280156115365781602001600182028036833780820191505090505b5090507f30000000000000000000000000000000000000000000000000000000000000008160008151811061156e5761156d611f81565b5b60200101907effffffffffffffffffffffffffffffffffffffffffffffffffffffffffffff1916908160001a9053507f7800000000000000000000000000000000000000000000000000000000000000816001815181106115d2576115d1611f81565b5b60200101907effffffffffffffffffffffffffffffffffffffffffffffffffffffffffffff1916908160001a905350600060018460026116129190612592565b61161c91906125ec565b90505b60018111156116bc577f3031323334353637383961626364656600000000000000000000000000000000600f86166010811061165e5761165d611f81565b5b1a60f81b82828151811061167557611674611f81565b5b60200101907effffffffffffffffffffffffffffffffffffffffffffffffffffffffffffff1916908160001a905350600485901c9450806116b590612642565b905061161f565b5060008414611700576040517f08c379a00000000000000000000000000000000000000000000000000000000081526004016116f7906126b8565b60405180910390fd5b8091505092915050565b6000604051905090565b600080fd5b600080fd5b60007fffffffff0000000000000000000000000000000000000000000000000000000082169050919050565b6117538161171e565b811461175e57600080fd5b50565b6000813590506117708161174a565b92915050565b60006020828403121561178c5761178b611714565b5b600061179a84828501611761565b91505092915050565b60008115159050919050565b6117b8816117a3565b82525050565b60006020820190506117d360008301846117af565b92915050565b6000819050919050565b6117ec816117d9565b81146117f757600080fd5b50565b600081359050611809816117e3565b92915050565b60006020828403121561182557611824611714565b5b6000611833848285016117fa565b91505092915050565b611845816117d9565b82525050565b6000602082019050611860600083018461183c565b92915050565b600073ffffffffffffffffffffffffffffffffffffffff82169050919050565b600061189182611866565b9050919050565b6118a181611886565b81146118ac57600080fd5b50565b6000813590506118be81611898565b92915050565b600080604083850312156118db576118da611714565b5b60006118e9858286016117fa565b92505060206118fa858286016118af565b9150509250929050565b6000819050919050565b61191781611904565b811461192257600080fd5b50565b6000813590506119348161190e565b92915050565b6000602082840312156119505761194f611714565b5b600061195e84828501611925565b91505092915050565b600080fd5b6000601f19601f8301169050919050565b7f4e487b7100000000000000000000000000000000000000000000000000000000600052604160045260246000fd5b6119b58261196c565b810181811067ffffffffffffffff821117156119d4576119d361197d565b5b80604052505050565b60006119e761170a565b90506119f382826119ac565b919050565b600067ffffffffffffffff821115611a1357611a1261197d565b5b602082029050602081019050919050565b600080fd5b6000611a3c611a37846119f8565b6119dd565b90508083825260208201905060208402830185811115611a5f57611a5e611a24565b5b835b81811015611a885780611a748882611925565b845260208401935050602081019050611a61565b5050509392505050565b600082601f830112611aa757611aa6611967565b5b8135611ab7848260208601611a29565b91505092915050565b600080600060608486031215611ad957611ad8611714565b5b6000611ae7868287016118af565b935050602084013567ffffffffffffffff811115611b0857611b07611719565b5b611b1486828701611a92565b9250506040611b25868287016118af565b9150509250925092565b6000819050919050565b6000611b54611b4f611b4a84611866565b611b2f565b611866565b9050919050565b6000611b6682611b39565b9050919050565b6000611b7882611b5b565b9050919050565b611b8881611b6d565b82525050565b6000602082019050611ba36000830184611b7f565b92915050565b600060208284031215611bbf57611bbe611714565b5b600082013567ffffffffffffffff811115611bdd57611bdc611719565b5b611be984828501611a92565b91505092915050565b600080600060608486031215611c0b57611c0a611714565b5b6000611c19868287016118af565b9350506020611c2a86828701611925565b9250506040611c3b868287016118af565b9150509250925092565b60008060408385031215611c5c57611c5b611714565b5b6000611c6a858286016118af565b9250506020611c7b858286016118af565b9150509250929050565b600081600f0b9050919050565b611c9b81611c85565b82525050565b6000602082019050611cb66000830184611c92565b92915050565b600080600060608486031215611cd557611cd4611714565b5b6000611ce3868287016118af565b9350506020611cf4868287016118af565b9250506040611d05868287016118af565b9150509250925092565b6000611d1a82611b5b565b9050919050565b611d2a81611d0f565b82525050565b6000602082019050611d456000830184611d21565b92915050565b611d5481611886565b82525050565b611d6381611904565b82525050565b6000606082019050611d7e6000830186611d4b565b611d8b6020830185611d4b565b611d986040830184611d5a565b949350505050565b6000602082019050611db56000830184611d5a565b92915050565b600080fd5b611dc981611c85565b8114611dd457600080fd5b50565b600081519050611de681611dc0565b92915050565b600081519050611dfb8161190e565b92915050565b600060408284031215611e1757611e16611dbb565b5b611e2160406119dd565b90506000611e3184828501611dd7565b6000830152506020611e4584828501611dec565b60208301525092915050565b600060408284031215611e6757611e66611714565b5b6000611e7584828501611e01565b91505092915050565b6000604082019050611e936000830185611d4b565b611ea06020830184611d5a565b9392505050565b6000606082019050611ebc6000830186611d4b565b611ec96020830185611d5a565b611ed66040830184611d5a565b949350505050565b600082825260208201905092915050565b7f416363657373436f6e74726f6c3a2063616e206f6e6c792072656e6f756e636560008201527f20726f6c657320666f722073656c660000000000000000000000000000000000602082015250565b6000611f4b602f83611ede565b9150611f5682611eef565b604082019050919050565b60006020820190508181036000830152611f7a81611f3e565b9050919050565b7f4e487b7100000000000000000000000000000000000000000000000000000000600052603260045260246000fd5b7f4e487b7100000000000000000000000000000000000000000000000000000000600052601160045260246000fd5b6000611fea82611904565b91507fffffffffffffffffffffffffffffffffffffffffffffffffffffffffffffffff82141561201d5761201c611fb0565b5b600182019050919050565b612031816117a3565b811461203c57600080fd5b50565b60008151905061204e81612028565b92915050565b60006020828403121561206a57612069611714565b5b60006120788482850161203f565b91505092915050565b7f4d69677261746f723a207472616e73666572206661696c730000000000000000600082015250565b60006120b7601883611ede565b91506120c282612081565b602082019050919050565b600060208201905081810360008301526120e6816120aa565b9050919050565b60006120f882611c85565b915061210383611c85565b9250816f7fffffffffffffffffffffffffffffff0383136000831215161561212e5761212d611fb0565b5b817fffffffffffffffffffffffffffffffff8000000000000000000000000000000003831260008312161561216657612165611fb0565b5b828201905092915050565b7f496e697469616c697a61626c653a20636f6e747261637420697320616c72656160008201527f647920696e697469616c697a6564000000000000000000000000000000000000602082015250565b60006121cd602e83611ede565b91506121d882612171565b604082019050919050565b600060208201905081810360008301526121fc816121c0565b9050919050565b6000819050919050565b600060ff82169050919050565b600061223561223061222b84612203565b611b2f565b61220d565b9050919050565b6122458161221a565b82525050565b6000602082019050612260600083018461223c565b92915050565b7f5061757361626c653a2070617573656400000000000000000000000000000000600082015250565b600061229c601083611ede565b91506122a782612266565b602082019050919050565b600060208201905081810360008301526122cb8161228f565b9050919050565b60006020820190506122e76000830184611d4b565b92915050565b7f496e697469616c697a61626c653a20636f6e7472616374206973206e6f74206960008201527f6e697469616c697a696e67000000000000000000000000000000000000000000602082015250565b6000612349602b83611ede565b9150612354826122ed565b604082019050919050565b600060208201905081810360008301526123788161233c565b9050919050565b600081905092915050565b7f416363657373436f6e74726f6c3a206163636f756e7420000000000000000000600082015250565b60006123c060178361237f565b91506123cb8261238a565b601782019050919050565b600081519050919050565b60005b838110156123ff5780820151818401526020810190506123e4565b8381111561240e576000848401525b50505050565b600061241f826123d6565b612429818561237f565b93506124398185602086016123e1565b80840191505092915050565b7f206973206d697373696e6720726f6c6520000000000000000000000000000000600082015250565b600061247b60118361237f565b915061248682612445565b601182019050919050565b600061249c826123b3565b91506124a88285612414565b91506124b38261246e565b91506124bf8284612414565b91508190509392505050565b60006124d6826123d6565b6124e08185611ede565b93506124f08185602086016123e1565b6124f98161196c565b840191505092915050565b6000602082019050818103600083015261251e81846124cb565b905092915050565b7f5061757361626c653a206e6f7420706175736564000000000000000000000000600082015250565b600061255c601483611ede565b915061256782612526565b602082019050919050565b6000602082019050818103600083015261258b8161254f565b9050919050565b600061259d82611904565b91506125a883611904565b9250817fffffffffffffffffffffffffffffffffffffffffffffffffffffffffffffffff04831182151516156125e1576125e0611fb0565b5b828202905092915050565b60006125f782611904565b915061260283611904565b9250827fffffffffffffffffffffffffffffffffffffffffffffffffffffffffffffffff0382111561263757612636611fb0565b5b828201905092915050565b600061264d82611904565b9150600082141561266157612660611fb0565b5b600182039050919050565b7f537472696e67733a20686578206c656e67746820696e73756666696369656e74600082015250565b60006126a2602083611ede565b91506126ad8261266c565b602082019050919050565b600060208201905081810360008301526126d181612695565b905091905056fea26469706673582212200f0875fe125da2df45142958963c0f68e4680778686d7fd38ce348389614e81d64736f6c63430008090033",
  "linkReferences": {},
  "deployedLinkReferences": {}
}